:02000004080AE8
:1000000000000A08882B0A08000006000600050107
:080010000402E50C00000000F1
:0400180070280A083A
:10001C0009480A4908B5884205D0094A824202D0EB
:10002C00121A02F04FFB0748074A0021121A02F07D
:10003C0057FB064808BD00BF00000020E42A0A0850
:10004C007C0000207C000020E10C0020E10C002052
:10005C0070B501F04BFC0025054E064CA41BA40802
:10006C00AC4200D170BD56F8043B98470135F7E718
:10007C00B82A0A08D82A0A0800F016B808B500F001
:10008C0031F9BDE8084001F0E9BB00F0BBBC00F061
:10009C00B9BC00F0BFBC0078B0FA80F040097047E2
:1000AC00012303707047000010B5294C01F096FA3B
:1000BC004FF4165101F078FA204600230222102149
:1000CC0000F065FA002320461A467A2100F04BFA1C
:1000DC000021042001F086FC0021022001F082FCAA
:1000EC0000210A2001F07EFC0321052001F07AFC9E
:1000FC0000222046114600F001FA2046154901F075
:10010C00D7F800237A211A46204600F02CFA4FF437
:10011C007A7000F0AFFC00237A221946204600F0DA
:10012C0022FA204600F0E0F900222046114600F0A9
:10013C00E5F92046084901F0BBF8204600210122D0
:10014C0000F0DCF92046BDE81040044901F0B0B8DD
:10015C006808002084280A0893280A08A0280A089E
:10016C0008B5054B188801F061FC02F0B5F9034B9A
:10017C00186002F07BFA08BD08000020600800201F
:10018C0030B505460C4685B001220921114800F016
:10019C00B5F90A222946684601F034F900990D4850
:1001AC0001F086F8684601F0D2F800220B210948CC
:1001BC0000F0A4F9002C0BDA2D21064801F07CF894
:1001CC0061420A22034805B0BDE8304001F08DB809
:1001DC002146F6E7680800202DE9F84FFFF7C0FF2D
:1001EC0002F07AF92C4B2D4F1D68044629463860D5
:1001FC0002F032FA002845D0DFF8A48098F80030DD
:10020C00002B3FD000F040FA06464EF66023DFF894
:10021C0094B0DFF89490DBF80000244D301A93FB77
:10022C00F0F002F059F9D9F80040AA4645F824003C
:10023C000023002518465AF8041B02F099F80135E2
:10024C003C2D0346F6D1013494FBF5F305FB134426
:10025C00CBF80060C9F8004001F0F2FD144B00220D
:10026C0001F070FF02F056F8124B1860002388F86A
:10027C000030386802F0FAF90E4B1968BDE8F84FF7
:10028C00FFF77EBF2946204602F0C8F90028F0D0BF
:10029C000122034B1A70ECE70C0000205C080020D4
:1002AC000000002088000020840000208C0000202A
:1002BC0000004E407C00002038B5046805467CB137
:1002CC006368013B63605BB9236820469B68984771
:1002DC00A368013BA3601BB923682046DB689847E1
:1002EC00284638BD70B5052088B001F08CFB04465B
:1002FC0050B9444D2B783BB17A237A2219464248A7
:10030C0000F031F92C7009E0052001F07CFB01288C
:10031C00044603D13B4D2B78002BEED0042001F08A
:10032C0072FB012862D0022001F06DFB01285DD028
:10033C0001F054F905460A2001F078FB041E53DA4B
:10034C002D21284600F0B8FF61420A22284600F011
:10035C00CCFF284600F0B3FF7D2000F08BFB2B4B2D
:10036C002B4C188801F062FB02F0B6F8294B186090
:10037C0000F08AF92368C01A274B1B68984204D3F3
:10038C0000F082F92060FFF727FF244B0A2219683E
:10039C0004A801F037F800F077F9214D04462B68DA
:1003AC0083421CDA1F4E049A33781F498DF80030B3
:1003BC0002A83C2300F0BAFC03A8FFF77DFF3378BA
:1003CC00049A1A498DF8003002A83C2304F56A54AB
:1003DC0000F0ACFC183403A8FFF76EFF2C6004A8E7
:1003EC0000F0B5FF08B070BD2146AEE701F0F6F89D
:1003FC000F4900F070FF01220021034800F07EF845
:10040C00AAE700BF7C080020680800200800002034
:10041C00640800205C080020040000207C00002000
:10042C007808002080000020C6280A08D0280A0876
:10043C00A9280A08002208B5064B07481A7000F0D4
:10044C004BF800F021F9054B00F56A501830186094
:10045C0008BD00BF8000002068080020780800203C
:10046C00704710B504461021FFF713FE204610BD4F
:10047C0070B50E46054601F007FB3E2100F00EFE5E
:10048C000024A64207DD01F0FFFA0368295D9B6892
:10049C0098470134F5E701F0F7FABDE8704000F039
:1004AC0004BE402307B58DF8051001A802218DF874
:1004BC000430FFF7DDFF012003B05DF804FB80235F
:1004CC0007B502218DF8050001A88DF80430FFF75F
:1004DC00CFFF03B05DF804FB00224260014A0260CA
:1004EC00704700BFE4280A0808B50120FFF7E7FFB2
:1004FC00BDE808404FF4FA6000F0BEB807B56AB921
:10050C0041F0800180238DF8051001A802218DF89F
:10051C000430FFF7ADFF03B05DF804FB41F0C00100
:10052C00F0E7437A43F00402427243F00C00FFF709
:10053C00C6BF38B514460D4601F0A6FA622100F08C
:10054C00ADFD01F0A1FA036829469B68984701F0BC
:10055C009BFA036821469B68984701F095FABDE821
:10056C00384000F0A2BD70B5044616461D460A463A
:10057C000421FFF7DEFF324620460321FFF7D9FFA7
:10058C002A462046BDE870400221FFF7D2BF70B565
:10059C00154604461E4601F077FA00F075FD012D54
:1005AC0088BF237A257384BF43F00803237200238A
:1005BC0063732EB1012D02BF237A43F0040323721F
:1005CC004CF2503000F058F8207A40F02000FFF741
:1005DC0076FF41F2941000F04FF8207A40F02000A2
:1005EC00FFF76DFF962000F047F8207A40F02000CE
:1005FC00FFF765FF207A40F02000FFF760FF04232F
:10060C0020466372FFF78DFF2046FFF76DFF022334
:10061C000620A372FFF753FF002220461146FFF776
:10062C0088FF204600220121FFF783FF2046AA22E3
:10063C000821FFF77EFFFF232046BDE870401A46D5
:10064C001946FFF790BF000008B5024B1B685B6CA6
:10065C00019308BDD001060808B5024B1B689B6CC2
:10066C00019308BDD001060808B5024B1B685B68F6
:10067C00019308BD9C01060808B5024B1B68DB689A
:10068C00019308BD9C01060808B5024B1B685B6909
:10069C00019308BD9C01060808B5024B1B685B68FA
:1006AC00019308BDB001060808B5024B1B689B6896
:1006BC00019308BDB001060808B5024B1B68DB6846
:1006CC00019308BDB001060808B5024B1B685B69B5
:1006DC00019308BDB001060808B5024B1B681B6BE3
:1006EC00019308BDB001060808B5024B1B68DB6C12
:1006FC00019308BDAC01060808B5024B1B689B6D45
:10070C00019308BDAC01060808B5024B1B68DB6DF4
:10071C00019308BDAC01060808B5024B1B681B6EA3
:10072C00019308BDAC01060808B5024B1B685B6E53
:10073C00019308BDAC01060808B5024B1B689B6E03
:10074C00019308BDAC01060808B5024B1B68DB6EB3
:10075C00019308BDAC01060808B5024B1B681B6F62
:10076C00019308BDAC01060808B5024B1B685B6F12
:10077C00019308BDAC01060808B5034B1B68D3F800
:10078C008030019308BD0000AC01060808B5024B8F
:10079C001B68DB69019308BDB401060808B5024B60
:1007AC001B681B6A019308BDB401060808B5024B0F
:1007BC001B685B6A019308BDC401060808B5024BAF
:1007CC001B689B6A019308BDC401060808B5024B5F
:1007DC001B68DB6A019308BDC401060808B5024B0F
:1007EC001B681B6B019308BDC401060808B5024BBE
:1007FC001B685B6B019308BDC401060808B5024B6E
:10080C001B689B6B019308BDC401060808B5024B1D
:10081C001B681B6C019308BDC401060808B5024B8C
:10082C001B681B6E019308BDC401060808B5024B7A
:10083C001B681B68019308BDD801060808B5024B5C
:10084C001B685B68019308BDD801060808B5024B0C
:10085C001B681B69019308BDD801060808B5024B3B
:10086C001B685B69019308BDD801060808B5024BEB
:10087C001B689B69019308BDD801060808B5024B9B
:10088C001B68DB69019308BDD801060808B5024B4B
:10089C001B681B6A019308BDD801060808B5024BFA
:1008AC001B689B6C019308BDC001060808B5024B80
:1008BC001B685B68019308BDA401060808B5024BD0
:1008CC001B685B69019308BDA401060808B5024BBF
:1008DC001B68DB6C019308BDA401060808B5024B2C
:1008EC001B685B6D019308BDA401060808B5034B9A
:1008FC001B68D3F89030019308BD0000A4010608D2
:10090C0008B5034B1B68D3F89C30019308BD00005D
:10091C00A401060808B5024B1B685B69019308BD6E
:10092C00CC01060808B5024B1B681B6A019308BD75
:10093C00CC01060808B5024B1B68DB6B019308BDA4
:10094C00CC01060808B5024B1B685B68019308BD17
:10095C00C801060808B5024B1B689B68019308BDCB
:10096C00C801060808B5024B1B68DB68019308BD7B
:10097C00C801060808B5024B1B681B69019308BD2A
:10098C00C801060808B5024B1B685B69019308BDDA
:10099C00C801060808B5024B1B689B69019308BD8A
:1009AC00C801060808B5024B1B68DB69019308BD3A
:1009BC00C801060808B5024B1B681B6A019308BDE9
:1009CC00C801060808B5024B1B681B6B019308BDD8
:1009DC00C801060808B5024B1B685B6B019308BD88
:1009EC00C801060808B5024B1B681B6C019308BDB7
:1009FC00C801060808B5024B1B685B6C019308BD67
:100A0C00C801060808B5024B1B681B68019308BD9A
:100A1C00A001060808B5024B1B685B68019308BD72
:100A2C00A001060808B5024B1B689B68019308BD22
:100A3C00A001060808B5024B1B68DB6A019308BDD0
:100A4C00A001060808B5024B1B681B6B019308BD7F
:100A5C00A001060808B5024B1B681B6C019308BD6E
:100A6C00A001060808B5024B1B685B6C019308BD1E
:100A7C00A00106080021FFF721BF10B583680446CA
:100A8C000BB901F075F8C3689847A3681BB1032232
:100A9C002146204698472046BDE810401021FFF71C
:100AAC00F8BA70470020704710B504461021FFF7C4
:100ABC00F0FA204610BD08B5FFF7F6FF08BD10B5DB
:100ACC008368044613B1032201469847204610BDA3
:100ADC00002230B54FF69C74026084808D888C8027
:100AEC000C68858004600A6030BD10B5044600684F
:100AFC00FFF790FF204610BD38B5C468F4B12378D9
:100B0C00022B03D104F10C00FFF7EFFF656835B140
:100B1C002846FFF7D4FF10212846FFF7BAFAA5683C
:100B2C0035B12846FFF7CBFF10212846FFF7B1FA65
:100B3C002046BDE838401421FFF7ABBA38BD0B682E
:100B4C0003604B68436013B15A6801325A607047B6
:100B5C0037B5044668460D46FFF7F1FF009B019A36
:100B6C0023600023626001A801930093FFF7A4FBAC
:100B7C0035B1281DFFF7A0FB08212846FFF789FA9D
:100B8C00204603B030BD13B56C460B46024603C875
:100B9C0084E8030093E8030082E8030094E8030070
:100BAC0083E8030002B010BD826810B50AB900F0EA
:100BBC00DFFFC368BDE81040184708B5006800F1B6
:100BCC001001FFF7F1FF08BD826810B50AB900F0FB
:100BDC00CFFFC368BDE81040184708B5006800F1A6
:100BEC001001FFF7F1FF08BD38B500230446036080
:100BFC0010200D46FFF749FA28B10123C0E9013353
:100C0C00024BC56003602060204638BDFC280A08F2
:100C1C0038B5002383608B6804460D462BB1022245
:100C2C009847EB68E360AB68A360204638BD0000D2
:100C3C00F0B589B004686846FFF74AFF4FF002032D
:100C4C00D4E84F2F002A03D1C4E8413F0029F7D143
:100C5C0025D104F10C0569462846FFF739FF01231D
:100C6C00BFF35B8F63700020BFF35B8F04F108034D
:100C7C0053E8006F43E80002002AF9D1BFF35B8F01
:100C8C006EB1FFF723FE78B129463046FFF78CFF93
:100C9C003046FFF714FF10213046FFF7FAF968468B
:100CAC00FFF723FF09B0F0BD314602A8FFF7B0FFF4
:100CBC00E068B4F9105008B101F048FD069010201E
:100CCC00ADF81C50FFF7E1F90546E8B10027876045
:100CDC001820FFF7DAF9044688B10146876002A8AC
:100CEC00FFF751FF049BA268A360059B0492E26886
:100CFC0006A9E36004F110000592FFF7E9FE084B2A
:100D0C002C60EB60074BAB6006A8FFF7EEFE02A869
:100D1C00FFF7D5FE002229460348FFF7DFFDB7E7B2
:100D2C00C70B0A08510E0A08870A0A082DE9F04772
:100D3C008AB005460C46174698469DF84890FFF732
:100D4C00E9FD07AE824638BB4FF62E73059005A918
:100D5C003046ADF81830FFF7BBFE1420FFF795F9BD
:100D6C00044648B1022303700123C0E901AA437071
:100D7C0031460C30FFF7ACFE2846214640F8044BB8
:100D8C00FFF732FF3046FFF7B0FE05A8FFF7ADFEC8
:100D9C0028460AB0BDE8F0870C234FF0000A142057
:100DAC00CDE908AA0793FFF770F9014628B1C0E90D
:100DBC0001AA80F800A080F801A004A80391FFF715
:100DCC0013FF1F4B08200893FFF75FF9824610B101
:100DDC0003A9FFF7B4FE42463946204600965FFA57
:100DEC0089F3CDF824A0FFF79DFDB8B9039B5B7880
:100DFC0003F0FF0293B94FF69C7305A903A8059263
:100E0C00ADF81830FFF714FF05A8FFF76EFE05A824
:100E1C000999FFF79DFE06A8FFF74EFA03A905A84E
:100E2C00FFF78DFE059B069A2B6000236A6006A8CF
:100E3C0006930593FFF740FA04A8FFF73DFAA7E7DE
:100E4C00CD0E0A08012AF8B5054603D10B680360DC
:100E5C000020F8BD022A10D0032AF9D10468002C16
:100E6C00F6D004F11000FFF740FE2046FFF727FEF6
:100E7C0018212046FFF70DF9EAE718200E68FFF756
:100E8C0004F9044650B13146FFF7C2FE3069B6F999
:100E9C00147008B101F05AFC2061A7822C60D7E7CE
:100EAC0038B5002383608B6804460D462BB10222B3
:100EBC009847EB68E360AB68A360204638BD000040
:100ECC00F0B5044689B00D4601A81146FFF740FE67
:100EDC00A4B124B21DB1284601F038FC054601A886
:100EEC0003A90395ADF81040FFF7A2FE03A8FFF786
:100EFC00FCFD02A8FFF7E0F909B0F0BD0123019D4C
:100F0C00D5E84F2F002A03D1C5E8413F0029F7D17E
:100F1C00EFD12B73BFF35B8F6B70BFF35B8F2B1D0C
:100F2C0053E8006F43E80042002AF9D1BFF35B8F0E
:100F3C00002EDED02046FFF7C9FC074660B13046D4
:100F4C0005F10C01FFF740FE3046FFF7B8FD10210C
:100F5C003046FFF79EF8CCE7314603A8FFF7A0FF19
:100F6C002B7B10208DF81C30FFF78FF80546D0B185
:100F7C0087601420FFF789F8044678B10146876032
:100F8C0003A8FFF700FE059BA268A360069B0592D1
:100F9C00E268E3609DF81C3006922374064B2C60CB
:100FAC00EB60064BAB6003A8FFF789FD00222946D6
:100FBC000348FFF793FCC7E7E70B0A08D10F0A08B1
:100FCC00870A0A08012A70B5044603D10B6803602E
:100FDC00002070BD022A0CD0032AF9D10468002C21
:100FEC00F6D02046FFF76BFD14212046FFF751F891
:100FFC00EEE714200E68FFF748F8054620B131469D
:10100C00FFF74EFF337C2B742560E1E77047F8B592
:10101C00064615460C468F18BC4206D0336830463F
:10102C009B6814F8011B9847F6E72846F8BD002288
:10103C00007CFFF771BB0021007CFFF775BB002122
:10104C00007CFFF779BB0021007CFFF77DBB002102
:10105C00007CFFF781BB10B504461421FFF719F88B
:10106C00204610BD10B54FF47A7304460846002193
:10107C00C4E90113034B114623602074FFF77CFB7A
:10108C00204610BD18290A080023007C1A46194670
:10109C00FFF72ABB0022007CFFF72EBBC9B2FFF77B
:1010AC00F9BF0022007CFFF72FBB0121FFF7F9BF2E
:1010BC007047F8B50E46002400F10807051D17F817
:1010CC00011D0A22304600F010F9AF42044401D150
:1010DC002046F8BD002CF2D02E21304600F0ECF862
:1010EC000444ECE710B504461821FEF7D2FF204665
:1010FC0010BD000010B50446044B1122002140F82D
:10110C00043B01F0EDFA204610BD00BF40290A084F
:10111C000346074A10B543F8042B01F1100251F8AD
:10112C00044B914243F8044BF9D10A781A7010BD64
:10113C0040290A08024AC0E90021042202757047BE
:10114C0040290A0810B59DF8084044EA03240423FA
:10115C0044EA024444EA01644460037510BD000093
:10116C0013B5044C04609DF810400094FFF7EAFF9F
:10117C0002B010BD40290A08014B024A1A607047A0
:10118C00800800204C290A08002340681A46FFF703
:10119C00D9BB002202214068FFF7E4BB0022406863
:1011AC001146FFF7D7BB002240681146FFF7E2BBA0
:1011BC00002340681A461946FFF7E4BB0023406839
:1011CC001A461946FFF7E6BB00214068FFF70ABC38
:1011DC0000214068FFF70EBC0022406881F001013D
:1011EC00FFF7E0BB00224068FFF7ECBB0022406831
:1011FC001146FFF7EFBB002240681146FFF7DABB40
:10120C0070B515468EB0044608A8FFF773FF11227F
:10121C00002103A801F064FA0026284601F0B1FA77
:10122C000A4B009681B25B68284603AAFFF736FB8F
:10123C0030B131462046FFF77DFF20460EB070BD21
:10124C00204603A9FFF764FFF7E700BFE40B00207B
:10125C00024B034A1A6000225A607047840800202F
:10126C0058290A08F8B506460D4600248F18BD42C9
:10127C000CD0336830469B6815F8011B9847031E49
:10128C0001DB1C44F3E7002C08BF1C462046F8BDCC
:10129C0070B505460C46084649B101F072FA2B6848
:1012AC00024621462846BDE87040DB68184770BDF1
:1012BC0008B5FFF7EDFF08BD03689B68184738B504
:1012CC000D210546FFF7F8FF0A2104462846FFF7D3
:1012DC00F3FF204438BD38B50546FFF7D9FF044667
:1012EC002846FFF7ECFF204438BD0023012A98BFA5
:1012FC000A2230B58BB00C468DF8243009A925464E
:10130C00B4FBF2F404FB1253DBB2092B94BF303361
:10131C003733DBB2AA4201F8013DF0D9FFF7B8FF31
:10132C000BB030BD0022014B9A6070478C08002036
:10133C0070B5002604460D4640F8086FFFF784F997
:10134C0028462570FFF722FA2046666070BD10B55E
:10135C0004460068FFF75EFB204610BD10B504463E
:10136C00006808B1FFF756FB0023C4E90133236082
:10137C0010BD38B504460D4600680131FFF752FB2D
:10138C0010B1C4E90005012038BD10B5036804464E
:10139C0023B143688B4201D3012010BD2046FFF7D7
:1013AC00E8FF0028F9D0A368002BF5D12268137050
:1013BC00F2E770B50E46114604461546FFF7E5FFF9
:1013CC0020B92046FFF7CAFF204670BD2A46314699
:1013DC002068A56001F076F900212268A368D15439
:1013EC00F2E738B505460C4649B1084601F0C9F993
:1013FC00214602462846FFF7DCFF284638BDFFF79A
:10140C00ADFFFAE710B5002304468AB0C4E90033F7
:10141C00A3602373084601A900F0D4F9204601A962
:10142C00FFF7DFFF20460AB010BD000002220020AB
:10143C00044B1A60044B054AC3E900009A60FFF79D
:10144C0035BA00BFA80800209C0800200000FFFF50
:10145C00024B1A68024B1A60704700BF1000002044
:10146C00AC08002070474174704708B5007CFFF74A
:10147C00CDF920EAE07008BD08B5007CFFF79EF9B5
:10148C0020EAE07008BD08B5007CFFF7A7F940EA38
:10149C00E07008BD08B5007CFFF798F940EAE070F1
:1014AC0008BD007CFFF7A2B970B5467C04460D461A
:1014BC002EB12946207CBDE87040FFF777B9007C3F
:1014CC00FFF7A4F90028F4DC304670BD10B50446D3
:1014DC001421FEF7DEFD204610BD000010B54FF4C0
:1014EC007A730446084611460022C4E90123044BD2
:1014FC002074236001236374FFF790F9204610BD1C
:10150C00B0290A08417470477047704708B500212C
:10151C00007CFFF7ABF940EAE07008BD08B501218B
:10152C00007CFFF7A3F940EAE07008BD08B5007C29
:10153C00FFF794F920EAE07008BD08B5007CFFF7CE
:10154C0085F920EAE07008BD38B50446007C0D46EC
:10155C00FFF784F9002801DC607C28B12946207C47
:10156C00FFF78CF920EAE07038BD007CFFF78EB9EC
:10157C0010B504461421FEF78CFD204610BD7047B3
:10158C0010B54FF47A73044608460021C4E90113E0
:10159C00044B20742360012311466374FFF746F952
:1015AC00204610BDE0290A080022007CFFF746B94E
:1015BC0010B504461422002101F092F8054B204688
:1015CC006360054BE36040F2011323818123238286
:1015DC0010BD00BFE0080020E109002030B50E4D21
:1015EC0087B001A8FFF7E4FF2978BFF35B8F11F0F8
:1015FC0001040ED12846FEF74EFD50B1214601AA3A
:10160C000648FFF7BDFF2846FEF74AFD044801F0E7
:10161C0053F8024807B030BDB0080020B8080020CD
:10162C0015150A0810B504461422002101F058F8CB
:10163C00054B20466360054BE36040F201132381A8
:10164C008123238210BD00BF620A0020630B00209F
:10165C0010B50E4C86B001A8FFF7E4FF2378BFF35A
:10166C005B8FDB070ED42046FEF715FD50B1012130
:10167C0001AA0748FFF784FF2046FEF711FD054835
:10168C0001F01AF8024806B010BD00BFB4080020E3
:10169C00CC0800208B150A08002240681146FFF781
:1016AC0069B9F0B5154689B011220E4604460021E1
:1016BC0003A801F015F8284601F063F8002781B261
:1016CC0073682846009703AAFFF7E8F830B139464B
:1016DC002046FFF72FFD204609B0F0BD204603A998
:1016EC00FFF716FDF7E7002240681146FFF762B9D5
:1016FC00002240681146FFF76DB900224068FFF7E1
:10170C0061B90022406881F00101FFF74BB9002359
:10171C0040681A461946FFF73DB9002340681A463F
:10172C001946FFF72FB9002240681146FFF712B98E
:10173C00002202214068FFF715B9002340681A46C1
:10174C00FFF700B90422024B5A60024A1A60704734
:10175C00E40B0020102A0A0810B5044601F011F819
:10176C00431E20462344834206D90278197800F898
:10177C00011B03F80129F6E710BD70B50C46911E4C
:10178C0022291DD8254630B9302223449D4210D23F
:10179C0005F8012BFAE7B0FBF2F602FB1600C1B21A
:1017AC00092894BF30315731C9B2304605F8011BB6
:1017BC00E9E7002320462B70FFF7CEFF204670BDD3
:1017CC000020FCE738B5031E0C4615460DDA2D2219
:1017DC00B3F1004F0CBF1846584201230A702A4639
:1017EC001944FFF7CAFF204638BD0123F9E7000072
:1017FC00014B1860704700BF1400002008B5134B54
:10180C0043B1FFF7EBFE03681B699847002801DD25
:10181C00AFF300800E4B43B100F084F903681B69F1
:10182C009847002801DDAFF300800A4B0BB1AFF3F2
:10183C000080094B43B1FFF70BFF03681B69984706
:10184C00002801DDAFF3008008BD00BF00000000E0
:10185C0000000000000000000000000008B5FFF7C9
:10186C00CDFFFEF711FF014B186008BD040C0020E2
:10187C000548064A08B5121A054900F023FF054B26
:10188C00054A1A6008BD00BF0040024004400240F7
:10189C00E02A0A08004002401E1C279A002307B5C4
:1018AC001A466FF077010093FFF72AF803B05DF842
:1018BC0004FB000007B543880A2B08D0502B0BD132
:1018CC00094B1B684BB103B05DF804EB1847FFF7ED
:1018DC00E5FF03B05DF804FB00231A466FF07701B7
:1018EC000093FFF70DF8F4E7F00B0020002110B582
:1018FC001148FFF7B7F8114B1A68114B9A420CBFFD
:10190C00012200220F4B1A7001D0FFF7B1FFFEF736
:10191C00ABFE044600F0ECFE0B4B13B12046AFF3CC
:10192C00008000210848FFF705F8BDE810400021B1
:10193C000648FEF7DBBF00BFFD170A080040024057
:10194C001E1C279AEC0B002000000000C1180A088E
:10195C00024B986808B1FEF77FBE7047F80B002069
:10196C00172870B5044601D9002070BDA0F10D03F5
:10197C00022B0BD9012824D800F086F80021007C1A
:10198C00FEF7F2FE80F00100C0B2EEE7124E3178A5
:10199C00BFF35B8F11F001050DD13046FEF77BFBD9
:1019AC0048B129460D48FFF7C3FC3046FEF778FBDB
:1019BC000B4800F081FE094B1878FEF7EFFE00286B
:1019CC00D2D1123C012C05D800F0ACF8007CFEF70B
:1019DC0015FFD7E70120C8E7F40B0020F80B002017
:1019EC005D190A08172838B504460D460AD8FF2990
:1019FC0008D0FFF7B5FF28B129462046BDE838408E
:101A0C00FEF752BE38BD10B50446FEF755FE031F57
:101A1C00DBB2012B08D92046FFF7A2FF20B12046EC
:101A2C00BDE81040FEF750BE002010BD10B50446B6
:101A3C0009289CBF0A34A4B22046FFF791FF50B18D
:101A4C0003212046FEF728FE032804D12046BDE8DA
:101A5C001040FEF741BE002010BD704770B5142336
:101A6C002025084E044603603146856005612846F2
:101A7C0000F07CF831466060284600F077F8E060B2
:101A8C00204670BD442A0A0830B50E4D87B029781F
:101A9C00BFF35B8F11F0010411D12846FEF7FBFA5E
:101AAC0068B101A8FFF7DAFF214601AA0648FFF743
:101ABC00D9FA2846FEF7F4FA044800F0FDFD024876
:101ACC0007B030BD080C00200C0C0020671A0A0867
:101ADC00002307B51A46194600930348FFF740FB4D
:101AEC0003B05DF804FB00BF200C00207047000021
:101AFC0070B5142504462A46002100F0F1FD25801E
:101B0C008025074E284631462581258200F02EF887
:101B1C0031466060284600F029F8E060204670BD30
:101B2C00442A0A0830B50E4D87B02978BFF35B8F75
:101B3C0011F0010411D12846FEF7ADFA68B101A8E5
:101B4C00FFF7D6FF214601AA0648FFF7C7FC284637
:101B5C00FEF7A6FA044800F0AFFD024807B030BD0E
:101B6C00380C00203C0C0020F91A0A08FEF78FBA3A
:101B7C0008B5FEF75FFF000081F0004102E000BFF6
:101B8C0083F0004330B54FEA41044FEA430594EA31
:101B9C00050F08BF90EA020F1FBF54EA000C55EA6C
:101BAC00020C7FEA645C7FEA655C00F0E2804FEA3D
:101BBC005454D4EB5555B8BF6D420CDD2C4480EA1F
:101BCC00020281EA030382EA000083EA010180EA4F
:101BDC00020281EA0303362D88BF30BD11F0004F9D
:101BEC004FEA01314FF4801C4CEA113102D04042D3
:101BFC0061EB410113F0004F4FEA03334CEA13330E
:101C0C0002D0524263EB430394EA050F00F0A78025
:101C1C00A4F10104D5F1200E0DDB02FA0EFC22FA20
:101C2C0005F2801841F1000103FA0EF2801843FA14
:101C3C0005F359410EE0A5F120050EF1200E012A05
:101C4C0003FA0EFC28BF4CF0020C43FA05F3C01843
:101C5C0051EBE37101F0004507D54FF0000EDCF1BC
:101C6C00000C7EEB00006EEB0101B1F5801F1BD365
:101C7C00B1F5001F0CD349085FEA30004FEA3C0C69
:101C8C0004F101044FEA445212F5800F80F09A805F
:101C9C00BCF1004F08BF5FEA500C50F1000041EB63
:101CAC00045141EA050130BD5FEA4C0C404141EB67
:101CBC000101013C28BFB1F5801FE9D291F0000F62
:101CCC0004BF01460020B1FA81F308BF2033A3F111
:101CDC000B03B3F120020CDA0C3208DD02F1140C08
:101CEC00C2F10C0201FA0CF021FA02F10CE002F143
:101CFC001402D8BFC2F1200C01FA02F120FA0CFC3C
:101D0C00DCBF41EA0C019040E41AA2BF01EB045184
:101D1C00294330BD6FEA04041F3C1CDA0C340EDC82
:101D2C0004F11404C4F1200220FA04F001FA02F3C5
:101D3C0040EA030021FA04F345EA030130BDC4F183
:101D4C000C04C4F1200220FA02F001FA04F340EA78
:101D5C000300294630BD21FA04F0294630BD94F029
:101D6C00000F83F4801306BF81F480110134013D10
:101D7C004EE77FEA645C18BF7FEA655C29D094EA81
:101D8C00050F08BF90EA020F05D054EA000C04BFFF
:101D9C001946104630BD91EA030F1EBF00210020EA
:101DAC0030BD5FEA545C05D14000494128BF41F089
:101DBC00004130BD14F580043CBF01F5801130BDED
:101DCC0001F0004545F0FE4141F470014FF0000078
:101DDC0030BD7FEA645C1ABF194610467FEA655C29
:101DEC001CBF0B46024650EA013406BF52EA0335CB
:101DFC0091EA030F41F4002130BD00BF90F0000FB9
:101E0C0004BF0021704730B54FF4806404F13204F4
:101E1C004FF000054FF0000150E700BF90F0000FAD
:101E2C0004BF0021704730B54FF4806404F13204D4
:101E3C0010F0004548BF40424FF000013EE700BFA4
:101E4C0042004FEAE2014FEA31014FEA02701FBF34
:101E5C0012F07F4393F07F4F81F06051704732F066
:101E6C007F4208BF704793F07F4F04BF41F40021BD
:101E7C00704730B54FF4607401F0004521F000411B
:101E8C001CE700BF50EA010208BF704730B54FF0A5
:101E9C0000050AE050EA010208BF704730B511F0A6
:101EAC00004502D5404261EB41014FF4806404F1DE
:101EBC0032045FEA915C3FF4D8AE4FF003025FEA64
:101ECC00DC0C18BF03325FEADC0C18BF033202EBE8
:101EDC00DC02C2F1200300FA03FC20FA02F001FA42
:101EEC0003FE40EA0E0021FA02F11444BDE600BFE5
:101EFC0070B54FF0FF0C4CF4E06C1CEA11541DBF94
:101F0C001CEA135594EA0C0F95EA0C0F00F0DEF85E
:101F1C002C4481EA030621EA4C5123EA4C5350EA43
:101F2C00013518BF52EA033541F4801143F4801394
:101F3C0038D0A0FB02CE4FF00005E1FB02E506F025
:101F4C000042E0FB03E54FF00006E1FB03569CF07A
:101F5C00000F18BF4EF0010EA4F1FF04B6F5007F80
:101F6C0064F5407404D25FEA4E0E6D4146EB0606F2
:101F7C0042EAC62141EA55514FEAC52040EA5E507B
:101F8C004FEACE2EB4F1FD0C88BFBCF5E06F1ED825
:101F9C00BEF1004F08BF5FEA500E50F1000041EB5C
:101FAC00045170BD06F0004646EA010140EA020009
:101FBC0081EA0301B4EB5C04C2BFD4EB0C0541EA2B
:101FCC00045170BD41F480114FF0000E013C00F340
:101FDC00AB8014F1360FDEBF002001F0004170BD64
:101FEC00C4F10004203C35DA0C341BDC04F114047D
:101FFC00C4F1200500FA05F320FA04F001FA05F209
:10200C0040EA020001F0004221F0004110EBD370D5
:10201C0021FA04F642EB06015EEA430E08BF20EA01
:10202C00D37070BDC4F10C04C4F1200500FA04F3A4
:10203C0020FA05F001FA04F240EA020001F0004136
:10204C0010EBD37041F100015EEA430E08BF20EAA9
:10205C00D37070BDC4F1200500FA05F24EEA020EF1
:10206C0020FA04F301FA05F243EA020321FA04F020
:10207C0001F0004121FA04F220EA020000EBD370D7
:10208C005EEA430E08BF20EAD37070BD94F0000FD7
:10209C000FD101F00046400041EB010111F4801F0B
:1020AC0008BF013CF7D041EA060195F0000F18BFBC
:1020BC00704703F00046520043EB030313F4801FF8
:1020CC0008BF013DF7D043EA0603704794EA0C0FB2
:1020DC000CEA135518BF95EA0C0F0CD050EA4106C8
:1020EC0018BF52EA4306D1D181EA030101F0004145
:1020FC004FF0000070BD50EA410606BF104619466D
:10210C0052EA430619D094EA0C0F02D150EA013678
:10211C0013D195EA0C0F05D152EA03361CBF1046B9
:10212C0019460AD181EA030101F0004141F0FE4158
:10213C0041F470014FF0000070BD41F0FE4141F4DC
:10214C00780170BD70B54FF0FF0C4CF4E06C1CEADC
:10215C0011541DBF1CEA135594EA0C0F95EA0C0F91
:10216C0000F0A7F8A4EB050481EA030E52EA03354C
:10217C004FEA013100F088804FEA03334FF080556D
:10218C0045EA131343EA12634FEA022245EA11159A
:10219C0045EA10654FEA00260EF000419D4208BF4B
:1021AC00964244F1FD0404F5407402D25B084FEAF8
:1021BC003202B61A65EB03055B084FEA32024FF4A4
:1021CC0080104FF4002CB6EB020E75EB030E22BF01
:1021DC00B61A754640EA0C005B084FEA3202B6EBC1
:1021EC00020E75EB030E22BFB61A754640EA5C0070
:1021FC005B084FEA3202B6EB020E75EB030E22BF00
:10220C00B61A754640EA9C005B084FEA3202B6EB00
:10221C00020E75EB030E22BFB61A754640EADC00BF
:10222C0055EA060E18D04FEA051545EA16754FEA21
:10223C0006164FEAC30343EA52734FEAC2025FEA3F
:10224C001C1CC0D111F4801F0BD141EA00014FF0CE
:10225C0000004FF0004CB6E711F4801F04BF01439F
:10226C000020B4F1FD0C88BFBCF5E06F3FF6AFAEBB
:10227C00B5EB030C04BFB6EB020C5FEA500C50F14B
:10228C00000041EB045170BD0EF0004E4EEA1131CE
:10229C0014EB5C04C2BFD4EB0C0541EA045170BDD5
:1022AC0041F480114FF0000E013C90E645EA060E19
:1022BC008DE60CEA135594EA0C0F08BF95EA0C0F47
:1022CC003FF43BAF94EA0C0F0AD150EA01347FF48F
:1022DC0034AF95EA0C0F7FF425AF104619462CE766
:1022EC0095EA0C0F06D152EA03353FF4FDAE1046C9
:1022FC00194622E750EA410618BF52EA43067FF41A
:10230C00C5AE50EA41047FF40DAF52EA43057FF4A9
:10231C00EBAE12E74FEA410212F5001215D211D5BD
:10232C006FF47873B3EB625212D94FEAC12343F0C6
:10233C00004343EA505311F0004F23FA02F018BF48
:10234C00404270474FF00000704750EA013005D111
:10235C0011F0004008BF6FF0004070474FF00000D4
:10236C00704700BF80F0004002E000BF81F00041E8
:10237C0042001FBF5FEA410392EA030F7FEA226C1F
:10238C007FEA236C6AD04FEA1262D2EB1363C1BFAF
:10239C00D218414048404140B8BF5B42192B88BF1E
:1023AC00704710F0004F40F4000020F07F4018BF41
:1023BC00404211F0004F41F4000121F07F4118BF61
:1023CC00494292EA030F3FD0A2F1010241FA03FC09
:1023DC0010EB0C00C3F1200301FA03F100F00043F1
:1023EC0002D5494260EB4000B0F5000F13D3B0F1B9
:1023FC00807F06D340084FEA310102F10102FE2A28
:10240C0051D2B1F1004F40EBC25008BF20F0010097
:10241C0040EA03007047490040EB0000013A28BF36
:10242C00B0F5000FEDD2B0FA80FCACF1080CB2EBB9
:10243C000C0200FA0CF0AABF00EBC2505242184337
:10244C00BCBFD0401843704792F0000F81F40001DC
:10245C0006BF80F400000132013BB5E74FEA4103AF
:10246C007FEA226C18BF7FEA236C21D092EA030F1B
:10247C0004D092F0000F08BF0846704790EA010F95
:10248C001CBF0020704712F07F4F04D1400028BFC2
:10249C0040F00040704712F100723CBF00F50000A4
:1024AC00704700F0004343F0FE4040F400007047DA
:1024BC007FEA226216BF08467FEA23630146420286
:1024CC0006BF5FEA412390EA010F40F48000704799
:1024DC004FF0000304E000BF10F0004348BF40423F
:1024EC005FEA000C08BF704743F0964301464FF07B
:1024FC0000001CE050EA010208BF70474FF00003D7
:10250C000AE000BF50EA010208BF704711F0004317
:10251C0002D5404261EB41015FEA010C02BF8446E7
:10252C000146002043F0B64308BFA3F18053A3F546
:10253C000003BCFA8CF2083AA3EBC25310DB01FA8D
:10254C0002FC634400FA02FCC2F12002BCF1004F11
:10255C0020FA02F243EB020008BF20F001007047A2
:10256C0002F1200201FA02FCC2F1200250EA4C00F6
:10257C0021FA02F243EB020008BF20EADC7070473C
:10258C004FF0FF3C06E000BF4FF0010C02E000BF33
:10259C004FF0010C4DF804CD4FEA40024FEA4103D5
:1025AC007FEA226C18BF7FEA236C11D001B052EA8B
:1025BC00530C18BF90EA010F58BFB2EB030088BF51
:1025CC00C81738BF6FEAE17018BF40F001007047C0
:1025DC007FEA226C02D15FEA402C05D17FEA236CA2
:1025EC00E4D15FEA412CE1D05DF8040B704700BFE9
:1025FC00844608466146FFE70FB5FFF7C9FF002880
:10260C0048BF10F1000F0FBD4DF808EDFFF7F4FFB8
:10261C000CBF012000205DF808FB00BF4DF808ED51
:10262C00FFF7EAFF34BF012000205DF808FB00BF74
:10263C004DF808EDFFF7E0FF94BF012000205DF896
:10264C0008FB00BF4DF808EDFFF7D2FF94BF012047
:10265C0000205DF808FB00BF4DF808EDFFF7C8FF40
:10266C0034BF012000205DF808FB00BF4FEA400298
:10267C00B2F1FE4F0FD34FF09E03B3EB12620DD9A4
:10268C004FEA002343F0004310F0004F23FA02F00E
:10269C0018BF404270474FF00000704712F1610FB5
:1026AC0001D1420205D110F0004008BF6FF000408C
:1026BC0070474FF000007047002301461A46184639
:1026CC0000F068B80A44914200F1FF3300D1704722
:1026DC0010B511F8014B914203F8014FF9D110BD1F
:1026EC0003460244934200D1704703F8011BF9E7FB
:1026FC0038B5104B04461D68AB6BB3B91820FEF708
:10270C0081F90246A86320B942210B4B0B48FEF716
:10271C00A1F90B490B4BC0E900130B4B0021836053
:10272C000B2383810120C2E904010022AB6B1C61E5
:10273C005A6138BD14000020452A0A085C2A0A0890
:10274C000E33CDAB34126DE6ECDE0500024B0146C8
:10275C00186800F003B800BF1400002070B50446E0
:10276C0008460D4600F00DF8461C31462046FEF793
:10277C0069F9044618B132462946FFF7A3FF2046F3
:10278C0070BD034613F8012B002AFBD1181A01382F
:10279C00704700002DE9F843DFF8AC800646D8F806
:1027AC0000001F460D46914600F058F8274B1C6858
:1027BC0034B9274C1C60274B13B11B68C4F8883004
:1027CC0063681F2B07DDD8F8000000F049F84FF0C4
:1027DC00FF30BDE8F8835EB3D4F8880088B91E4B8F
:1027EC0023B9D8F8000000F03AF8F0E74FF4847001
:1027FC00FEF708F90028F4D00023C0E94033C4F8F0
:10280C00880001226368022E40F8239002FA03F23A
:10281C0000EB8301D0F8003143EA0203C0F8003129
:10282C00C1F8807002BFD0F804311343C0F80431F2
:10283C006368D8F800005A1C0233626044F82350D5
:10284C0000F00EF80020C4E778000020DC0C00201B
:10285C00500C002000000000110A0A087047704755
:10286C00704700001D000A085D000A0885000A0870
:10287C0089000A0800000000506F776572696E6766
:10288C00206F6E2E2E2E004865617274205261747A
:10289C00653A20007369676E616C3A20004461747C
:1028AC0061206E6F74206265696E67207265616469
:1028BC002070726F7065726C790068656172745209
:1028CC006174650068656172744265617400000032
:1028DC0000000000000000006D040A086F040A08E4
:1028EC00AF040A0871120A08000000000000000082
:1028FC00AF0A0A08B50A0A08050B0A08C30A0A082F
:10290C00B10A0A08000000000000000019100A08B3
:10291C0063100A083B100A081B100A0843100A0827
:10292C004B100A0853100A085B100A08000000003C
:10293C0000000000BF100A08BD100A08F1100A08B8
:10294C0061707000000000000000000095110A0882
:10295C009F110A08A9110A08B3110A08BD110A0827
:10296C00C9110A08D5110A08DD110A08E5110A086F
:10297C00F1110A08F9110A0803120A080D120A08C3
:10298C0025592D256D2D25645425483A254D3A257C
:10299C0053257A0061736374696D65000000000053
:1029AC000000000071140A08D9140A08B5140A08AA
:1029BC0071120A0885140A08A1140A0893140A084B
:1029CC00AF140A0873140A0877140A0800000000F0
:1029DC000000000017150A087D150A0855150A088D
:1029EC0071120A0847150A0819150A0829150A0848
:1029FC0077150A0839150A0811150A080000000095
:102A0C000000000047170A083D170A0833170A0888
:102A1C00A5160A0827170A081B170A08D5110A0851
:102A2C00DD110A080F170A0807170A08FD160A080D
:102A3C00F3160A08AF160A08005245454E54206D8D
:102A4C00616C6C6F632073756363656564656400AA
:102A5C002F746D702F6A656E6B696E732D474343CF
:102A6C002D31302D706970656C696E652D34385F51
:102A7C0032303230313132345F31363036313830F9
:102A8C003633392F7372632F6E65776C69622F6ED4
:102A9C0065776C69622F6C6962632F7374646C69FF
:102AAC00622F72616E642E630000000041040A08FC
:102ABC0085110A085D120A0831130A0839140A082C
:102ACC005D140A0851170A08DD1A0A0800000000F4
:042ADC0000000000F6
:042AE00000000000F2
:102AE40001000000800000000A00000000001B44F8
:102AF400A0290A08180000200000000000000000BF
:102B040000000000000000000000000000000000C1
:102B140000000000000000000000000000000000B1
:102B240000000000000000000000000000000000A1
:102B34000000000000000000000000000000000091
:102B44000000000000000000000000000000000081
:0C2B54000000000000000000E00C002069
:102B6000FFFFFFFF00000102030405060708090A32
:102B70000B0C0D0E0F101112131415161718191A2D
:082B80001B1C1D1E1F20280074
:042B88007856341235
:04000005080A001CC9
:00000001FF
